{"contracts/GameContract.sol":{"GameContract":{"abi":[{"inputs":[{"internalType":"string","name":"_teamA","type":"string"},{"internalType":"uint256","name":"_scoreA","type":"uint256"},{"internalType":"string","name":"_teamB","type":"string"},{"internalType":"uint256","name":"_scoreB","type":"uint256"}],"stateMutability":"nonpayable","type":"constructor"},{"inputs":[],"name":"currentGame","outputs":[{"internalType":"string","name":"teamA","type":"string"},{"internalType":"uint256","name":"scoreA","type":"uint256"},{"internalType":"string","name":"teamB","type":"string"},{"internalType":"uint256","name":"scoreB","type":"uint256"}],"stateMutability":"view","type":"function"},{"inputs":[],"name":"getGameData","outputs":[{"internalType":"string","name":"","type":"string"},{"internalType":"uint256","name":"","type":"uint256"},{"internalType":"string","name":"","type":"string"},{"internalType":"uint256","name":"","type":"uint256"}],"stateMutability":"view","type":"function"}],"evm":{"bytecode":{"linkReferences":{},"object":"60806040523480156200001157600080fd5b5060405162000ae038038062000ae0833981810160405281019062000037919062000278565b60405180608001604052808581526020018481526020018381526020018281525060008082015181600001908162000070919062000569565b5060208201518160010155604082015181600201908162000092919062000569565b50606082015181600301559050505050505062000650565b6000604051905090565b600080fd5b600080fd5b600080fd5b600080fd5b6000601f19601f8301169050919050565b7f4e487b7100000000000000000000000000000000000000000000000000000000600052604160045260246000fd5b6200011382620000c8565b810181811067ffffffffffffffff82111715620001355762000134620000d9565b5b80604052505050565b60006200014a620000aa565b905062000158828262000108565b919050565b600067ffffffffffffffff8211156200017b576200017a620000d9565b5b6200018682620000c8565b9050602081019050919050565b60005b83811015620001b357808201518184015260208101905062000196565b60008484015250505050565b6000620001d6620001d0846200015d565b6200013e565b905082815260208101848484011115620001f557620001f4620000c3565b5b6200020284828562000193565b509392505050565b600082601f830112620002225762000221620000be565b5b815162000234848260208601620001bf565b91505092915050565b6000819050919050565b62000252816200023d565b81146200025e57600080fd5b50565b600081519050620002728162000247565b92915050565b60008060008060808587031215620002955762000294620000b4565b5b600085015167ffffffffffffffff811115620002b657620002b5620000b9565b5b620002c4878288016200020a565b9450506020620002d78782880162000261565b935050604085015167ffffffffffffffff811115620002fb57620002fa620000b9565b5b62000309878288016200020a565b92505060606200031c8782880162000261565b91505092959194509250565b600081519050919050565b7f4e487b7100000000000000000000000000000000000000000000000000000000600052602260045260246000fd5b600060028204905060018216806200037b57607f821691505b60208210810362000391576200039062000333565b5b50919050565b60008190508160005260206000209050919050565b60006020601f8301049050919050565b600082821b905092915050565b600060088302620003fb7fffffffffffffffffffffffffffffffffffffffffffffffffffffffffffffffff82620003bc565b620004078683620003bc565b95508019841693508086168417925050509392505050565b6000819050919050565b60006200044a620004446200043e846200023d565b6200041f565b6200023d565b9050919050565b6000819050919050565b620004668362000429565b6200047e620004758262000451565b848454620003c9565b825550505050565b600090565b6200049562000486565b620004a28184846200045b565b505050565b5b81811015620004ca57620004be6000826200048b565b600181019050620004a8565b5050565b601f8211156200051957620004e38162000397565b620004ee84620003ac565b81016020851015620004fe578190505b620005166200050d85620003ac565b830182620004a7565b50505b505050565b600082821c905092915050565b60006200053e600019846008026200051e565b1980831691505092915050565b60006200055983836200052b565b9150826002028217905092915050565b620005748262000328565b67ffffffffffffffff81111562000590576200058f620000d9565b5b6200059c825462000362565b620005a9828285620004ce565b600060209050601f831160018114620005e15760008415620005cc578287015190505b620005d885826200054b565b86555062000648565b601f198416620005f18662000397565b60005b828110156200061b57848901518255600182019150602085019450602081019050620005f4565b868310156200063b578489015162000637601f8916826200052b565b8355505b6001600288020188555050505b505050505050565b61048080620006606000396000f3fe608060405234801561001057600080fd5b50600436106100365760003560e01c806360b663bb1461003b578063af4e99de1461005c575b600080fd5b61004361007d565b6040516100539493929190610397565b60405180910390f35b6100646101ab565b6040516100749493929190610397565b60405180910390f35b600080600001805461008e90610419565b80601f01602080910402602001604051908101604052809291908181526020018280546100ba90610419565b80156101075780601f106100dc57610100808354040283529160200191610107565b820191906000526020600020905b8154815290600101906020018083116100ea57829003601f168201915b50505050509080600101549080600201805461012290610419565b80601f016020809104026020016040519081016040528092919081815260200182805461014e90610419565b801561019b5780601f106101705761010080835404028352916020019161019b565b820191906000526020600020905b81548152906001019060200180831161017e57829003601f168201915b5050505050908060030154905084565b60606000606060008060000160006001015460006002016000600301548380546101d490610419565b80601f016020809104026020016040519081016040528092919081815260200182805461020090610419565b801561024d5780601f106102225761010080835404028352916020019161024d565b820191906000526020600020905b81548152906001019060200180831161023057829003601f168201915b5050505050935081805461026090610419565b80601f016020809104026020016040519081016040528092919081815260200182805461028c90610419565b80156102d95780601f106102ae576101008083540402835291602001916102d9565b820191906000526020600020905b8154815290600101906020018083116102bc57829003601f168201915b50505050509150935093509350935090919293565b600081519050919050565b600082825260208201905092915050565b60005b8381101561032857808201518184015260208101905061030d565b60008484015250505050565b6000601f19601f8301169050919050565b6000610350826102ee565b61035a81856102f9565b935061036a81856020860161030a565b61037381610334565b840191505092915050565b6000819050919050565b6103918161037e565b82525050565b600060808201905081810360008301526103b18187610345565b90506103c06020830186610388565b81810360408301526103d28185610345565b90506103e16060830184610388565b95945050505050565b7f4e487b7100000000000000000000000000000000000000000000000000000000600052602260045260246000fd5b6000600282049050600182168061043157607f821691505b602082108103610444576104436103ea565b5b5091905056fea2646970667358221220a7ada05c2c1cf6a00461a1f05399c264194c6f9803526bce2520f0e0ba3303b664736f6c63430008120033","opcodes":"PUSH1 0x80 PUSH1 0x40 MSTORE CALLVALUE DUP1 ISZERO PUSH3 0x11 JUMPI PUSH1 0x0 DUP1 REVERT JUMPDEST POP PUSH1 0x40 MLOAD PUSH3 0xAE0 CODESIZE SUB DUP1 PUSH3 0xAE0 DUP4 CODECOPY DUP2 DUP2 ADD PUSH1 0x40 MSTORE DUP2 ADD SWAP1 PUSH3 0x37 SWAP2 SWAP1 PUSH3 0x278 JUMP JUMPDEST PUSH1 0x40 MLOAD DUP1 PUSH1 0x80 ADD PUSH1 0x40 MSTORE DUP1 DUP6 DUP2 MSTORE PUSH1 0x20 ADD DUP5 DUP2 MSTORE PUSH1 0x20 ADD DUP4 DUP2 MSTORE PUSH1 0x20 ADD DUP3 DUP2 MSTORE POP PUSH1 0x0 DUP1 DUP3 ADD MLOAD DUP2 PUSH1 0x0 ADD SWAP1 DUP2 PUSH3 0x70 SWAP2 SWAP1 PUSH3 0x569 JUMP JUMPDEST POP PUSH1 0x20 DUP3 ADD MLOAD DUP2 PUSH1 0x1 ADD SSTORE PUSH1 0x40 DUP3 ADD MLOAD DUP2 PUSH1 0x2 ADD SWAP1 DUP2 PUSH3 0x92 SWAP2 SWAP1 PUSH3 0x569 JUMP JUMPDEST POP PUSH1 0x60 DUP3 ADD MLOAD DUP2 PUSH1 0x3 ADD SSTORE SWAP1 POP POP POP POP POP POP PUSH3 0x650 JUMP JUMPDEST PUSH1 0x0 PUSH1 0x40 MLOAD SWAP1 POP SWAP1 JUMP JUMPDEST PUSH1 0x0 DUP1 REVERT JUMPDEST PUSH1 0x0 DUP1 REVERT JUMPDEST PUSH1 0x0 DUP1 REVERT JUMPDEST PUSH1 0x0 DUP1 REVERT JUMPDEST PUSH1 0x0 PUSH1 0x1F NOT PUSH1 0x1F DUP4 ADD AND SWAP1 POP SWAP2 SWAP1 POP JUMP JUMPDEST PUSH32 0x4E487B7100000000000000000000000000000000000000000000000000000000 PUSH1 0x0 MSTORE PUSH1 0x41 PUSH1 0x4 MSTORE PUSH1 0x24 PUSH1 0x0 REVERT JUMPDEST PUSH3 0x113 DUP3 PUSH3 0xC8 JUMP JUMPDEST DUP2 ADD DUP2 DUP2 LT PUSH8 0xFFFFFFFFFFFFFFFF DUP3 GT OR ISZERO PUSH3 0x135 JUMPI PUSH3 0x134 PUSH3 0xD9 JUMP JUMPDEST JUMPDEST DUP1 PUSH1 0x40 MSTORE POP POP POP JUMP JUMPDEST PUSH1 0x0 PUSH3 0x14A PUSH3 0xAA JUMP JUMPDEST SWAP1 POP PUSH3 0x158 DUP3 DUP3 PUSH3 0x108 JUMP JUMPDEST SWAP2 SWAP1 POP JUMP JUMPDEST PUSH1 0x0 PUSH8 0xFFFFFFFFFFFFFFFF DUP3 GT ISZERO PUSH3 0x17B JUMPI PUSH3 0x17A PUSH3 0xD9 JUMP JUMPDEST JUMPDEST PUSH3 0x186 DUP3 PUSH3 0xC8 JUMP JUMPDEST SWAP1 POP PUSH1 0x20 DUP2 ADD SWAP1 POP SWAP2 SWAP1 POP JUMP JUMPDEST PUSH1 0x0 JUMPDEST DUP4 DUP2 LT ISZERO PUSH3 0x1B3 JUMPI DUP1 DUP3 ADD MLOAD DUP2 DUP5 ADD MSTORE PUSH1 0x20 DUP2 ADD SWAP1 POP PUSH3 0x196 JUMP JUMPDEST PUSH1 0x0 DUP5 DUP5 ADD MSTORE POP POP POP POP JUMP JUMPDEST PUSH1 0x0 PUSH3 0x1D6 PUSH3 0x1D0 DUP5 PUSH3 0x15D JUMP JUMPDEST PUSH3 0x13E JUMP JUMPDEST SWAP1 POP DUP3 DUP2 MSTORE PUSH1 0x20 DUP2 ADD DUP5 DUP5 DUP5 ADD GT ISZERO PUSH3 0x1F5 JUMPI PUSH3 0x1F4 PUSH3 0xC3 JUMP JUMPDEST JUMPDEST PUSH3 0x202 DUP5 DUP3 DUP6 PUSH3 0x193 JUMP JUMPDEST POP SWAP4 SWAP3 POP POP POP JUMP JUMPDEST PUSH1 0x0 DUP3 PUSH1 0x1F DUP4 ADD SLT PUSH3 0x222 JUMPI PUSH3 0x221 PUSH3 0xBE JUMP JUMPDEST JUMPDEST DUP2 MLOAD PUSH3 0x234 DUP5 DUP3 PUSH1 0x20 DUP7 ADD PUSH3 0x1BF JUMP JUMPDEST SWAP2 POP POP SWAP3 SWAP2 POP POP JUMP JUMPDEST PUSH1 0x0 DUP2 SWAP1 POP SWAP2 SWAP1 POP JUMP JUMPDEST PUSH3 0x252 DUP2 PUSH3 0x23D JUMP JUMPDEST DUP2 EQ PUSH3 0x25E JUMPI PUSH1 0x0 DUP1 REVERT JUMPDEST POP JUMP JUMPDEST PUSH1 0x0 DUP2 MLOAD SWAP1 POP PUSH3 0x272 DUP2 PUSH3 0x247 JUMP JUMPDEST SWAP3 SWAP2 POP POP JUMP JUMPDEST PUSH1 0x0 DUP1 PUSH1 0x0 DUP1 PUSH1 0x80 DUP6 DUP8 SUB SLT ISZERO PUSH3 0x295 JUMPI PUSH3 0x294 PUSH3 0xB4 JUMP JUMPDEST JUMPDEST PUSH1 0x0 DUP6 ADD MLOAD PUSH8 0xFFFFFFFFFFFFFFFF DUP2 GT ISZERO PUSH3 0x2B6 JUMPI PUSH3 0x2B5 PUSH3 0xB9 JUMP JUMPDEST JUMPDEST PUSH3 0x2C4 DUP8 DUP3 DUP9 ADD PUSH3 0x20A JUMP JUMPDEST SWAP5 POP POP PUSH1 0x20 PUSH3 0x2D7 DUP8 DUP3 DUP9 ADD PUSH3 0x261 JUMP JUMPDEST SWAP4 POP POP PUSH1 0x40 DUP6 ADD MLOAD PUSH8 0xFFFFFFFFFFFFFFFF DUP2 GT ISZERO PUSH3 0x2FB JUMPI PUSH3 0x2FA PUSH3 0xB9 JUMP JUMPDEST JUMPDEST PUSH3 0x309 DUP8 DUP3 DUP9 ADD PUSH3 0x20A JUMP JUMPDEST SWAP3 POP POP PUSH1 0x60 PUSH3 0x31C DUP8 DUP3 DUP9 ADD PUSH3 0x261 JUMP JUMPDEST SWAP2 POP POP SWAP3 SWAP6 SWAP2 SWAP5 POP SWAP3 POP JUMP JUMPDEST PUSH1 0x0 DUP2 MLOAD SWAP1 POP SWAP2 SWAP1 POP JUMP JUMPDEST PUSH32 0x4E487B7100000000000000000000000000000000000000000000000000000000 PUSH1 0x0 MSTORE PUSH1 0x22 PUSH1 0x4 MSTORE PUSH1 0x24 PUSH1 0x0 REVERT JUMPDEST PUSH1 0x0 PUSH1 0x2 DUP3 DIV SWAP1 POP PUSH1 0x1 DUP3 AND DUP1 PUSH3 0x37B JUMPI PUSH1 0x7F DUP3 AND SWAP2 POP JUMPDEST PUSH1 0x20 DUP3 LT DUP2 SUB PUSH3 0x391 JUMPI PUSH3 0x390 PUSH3 0x333 JUMP JUMPDEST JUMPDEST POP SWAP2 SWAP1 POP JUMP JUMPDEST PUSH1 0x0 DUP2 SWAP1 POP DUP2 PUSH1 0x0 MSTORE PUSH1 0x20 PUSH1 0x0 KECCAK256 SWAP1 POP SWAP2 SWAP1 POP JUMP JUMPDEST PUSH1 0x0 PUSH1 0x20 PUSH1 0x1F DUP4 ADD DIV SWAP1 POP SWAP2 SWAP1 POP JUMP JUMPDEST PUSH1 0x0 DUP3 DUP3 SHL SWAP1 POP SWAP3 SWAP2 POP POP JUMP JUMPDEST PUSH1 0x0 PUSH1 0x8 DUP4 MUL PUSH3 0x3FB PUSH32 0xFFFFFFFFFFFFFFFFFFFFFFFFFFFFFFFFFFFFFFFFFFFFFFFFFFFFFFFFFFFFFFFF DUP3 PUSH3 0x3BC JUMP JUMPDEST PUSH3 0x407 DUP7 DUP4 PUSH3 0x3BC JUMP JUMPDEST SWAP6 POP DUP1 NOT DUP5 AND SWAP4 POP DUP1 DUP7 AND DUP5 OR SWAP3 POP POP POP SWAP4 SWAP3 POP POP POP JUMP JUMPDEST PUSH1 0x0 DUP2 SWAP1 POP SWAP2 SWAP1 POP JUMP JUMPDEST PUSH1 0x0 PUSH3 0x44A PUSH3 0x444 PUSH3 0x43E DUP5 PUSH3 0x23D JUMP JUMPDEST PUSH3 0x41F JUMP JUMPDEST PUSH3 0x23D JUMP JUMPDEST SWAP1 POP SWAP2 SWAP1 POP JUMP JUMPDEST PUSH1 0x0 DUP2 SWAP1 POP SWAP2 SWAP1 POP JUMP JUMPDEST PUSH3 0x466 DUP4 PUSH3 0x429 JUMP JUMPDEST PUSH3 0x47E PUSH3 0x475 DUP3 PUSH3 0x451 JUMP JUMPDEST DUP5 DUP5 SLOAD PUSH3 0x3C9 JUMP JUMPDEST DUP3 SSTORE POP POP POP POP JUMP JUMPDEST PUSH1 0x0 SWAP1 JUMP JUMPDEST PUSH3 0x495 PUSH3 0x486 JUMP JUMPDEST PUSH3 0x4A2 DUP2 DUP5 DUP5 PUSH3 0x45B JUMP JUMPDEST POP POP POP JUMP JUMPDEST JUMPDEST DUP2 DUP2 LT ISZERO PUSH3 0x4CA JUMPI PUSH3 0x4BE PUSH1 0x0 DUP3 PUSH3 0x48B JUMP JUMPDEST PUSH1 0x1 DUP2 ADD SWAP1 POP PUSH3 0x4A8 JUMP JUMPDEST POP POP JUMP JUMPDEST PUSH1 0x1F DUP3 GT ISZERO PUSH3 0x519 JUMPI PUSH3 0x4E3 DUP2 PUSH3 0x397 JUMP JUMPDEST PUSH3 0x4EE DUP5 PUSH3 0x3AC JUMP JUMPDEST DUP2 ADD PUSH1 0x20 DUP6 LT ISZERO PUSH3 0x4FE JUMPI DUP2 SWAP1 POP JUMPDEST PUSH3 0x516 PUSH3 0x50D DUP6 PUSH3 0x3AC JUMP JUMPDEST DUP4 ADD DUP3 PUSH3 0x4A7 JUMP JUMPDEST POP POP JUMPDEST POP POP POP JUMP JUMPDEST PUSH1 0x0 DUP3 DUP3 SHR SWAP1 POP SWAP3 SWAP2 POP POP JUMP JUMPDEST PUSH1 0x0 PUSH3 0x53E PUSH1 0x0 NOT DUP5 PUSH1 0x8 MUL PUSH3 0x51E JUMP JUMPDEST NOT DUP1 DUP4 AND SWAP2 POP POP SWAP3 SWAP2 POP POP JUMP JUMPDEST PUSH1 0x0 PUSH3 0x559 DUP4 DUP4 PUSH3 0x52B JUMP JUMPDEST SWAP2 POP DUP3 PUSH1 0x2 MUL DUP3 OR SWAP1 POP SWAP3 SWAP2 POP POP JUMP JUMPDEST PUSH3 0x574 DUP3 PUSH3 0x328 JUMP JUMPDEST PUSH8 0xFFFFFFFFFFFFFFFF DUP2 GT ISZERO PUSH3 0x590 JUMPI PUSH3 0x58F PUSH3 0xD9 JUMP JUMPDEST JUMPDEST PUSH3 0x59C DUP3 SLOAD PUSH3 0x362 JUMP JUMPDEST PUSH3 0x5A9 DUP3 DUP3 DUP6 PUSH3 0x4CE JUMP JUMPDEST PUSH1 0x0 PUSH1 0x20 SWAP1 POP PUSH1 0x1F DUP4 GT PUSH1 0x1 DUP2 EQ PUSH3 0x5E1 JUMPI PUSH1 0x0 DUP5 ISZERO PUSH3 0x5CC JUMPI DUP3 DUP8 ADD MLOAD SWAP1 POP JUMPDEST PUSH3 0x5D8 DUP6 DUP3 PUSH3 0x54B JUMP JUMPDEST DUP7 SSTORE POP PUSH3 0x648 JUMP JUMPDEST PUSH1 0x1F NOT DUP5 AND PUSH3 0x5F1 DUP7 PUSH3 0x397 JUMP JUMPDEST PUSH1 0x0 JUMPDEST DUP3 DUP2 LT ISZERO PUSH3 0x61B JUMPI DUP5 DUP10 ADD MLOAD DUP3 SSTORE PUSH1 0x1 DUP3 ADD SWAP2 POP PUSH1 0x20 DUP6 ADD SWAP5 POP PUSH1 0x20 DUP2 ADD SWAP1 POP PUSH3 0x5F4 JUMP JUMPDEST DUP7 DUP4 LT ISZERO PUSH3 0x63B JUMPI DUP5 DUP10 ADD MLOAD PUSH3 0x637 PUSH1 0x1F DUP10 AND DUP3 PUSH3 0x52B JUMP JUMPDEST DUP4 SSTORE POP JUMPDEST PUSH1 0x1 PUSH1 0x2 DUP9 MUL ADD DUP9 SSTORE POP POP POP JUMPDEST POP POP POP POP POP POP JUMP JUMPDEST PUSH2 0x480 DUP1 PUSH3 0x660 PUSH1 0x0 CODECOPY PUSH1 0x0 RETURN INVALID PUSH1 0x80 PUSH1 0x40 MSTORE CALLVALUE DUP1 ISZERO PUSH2 0x10 JUMPI PUSH1 0x0 DUP1 REVERT JUMPDEST POP PUSH1 0x4 CALLDATASIZE LT PUSH2 0x36 JUMPI PUSH1 0x0 CALLDATALOAD PUSH1 0xE0 SHR DUP1 PUSH4 0x60B663BB EQ PUSH2 0x3B JUMPI DUP1 PUSH4 0xAF4E99DE EQ PUSH2 0x5C JUMPI JUMPDEST PUSH1 0x0 DUP1 REVERT JUMPDEST PUSH2 0x43 PUSH2 0x7D JUMP JUMPDEST PUSH1 0x40 MLOAD PUSH2 0x53 SWAP5 SWAP4 SWAP3 SWAP2 SWAP1 PUSH2 0x397 JUMP JUMPDEST PUSH1 0x40 MLOAD DUP1 SWAP2 SUB SWAP1 RETURN JUMPDEST PUSH2 0x64 PUSH2 0x1AB JUMP JUMPDEST PUSH1 0x40 MLOAD PUSH2 0x74 SWAP5 SWAP4 SWAP3 SWAP2 SWAP1 PUSH2 0x397 JUMP JUMPDEST PUSH1 0x40 MLOAD DUP1 SWAP2 SUB SWAP1 RETURN JUMPDEST PUSH1 0x0 DUP1 PUSH1 0x0 ADD DUP1 SLOAD PUSH2 0x8E SWAP1 PUSH2 0x419 JUMP JUMPDEST DUP1 PUSH1 0x1F ADD PUSH1 0x20 DUP1 SWAP2 DIV MUL PUSH1 0x20 ADD PUSH1 0x40 MLOAD SWAP1 DUP2 ADD PUSH1 0x40 MSTORE DUP1 SWAP3 SWAP2 SWAP1 DUP2 DUP2 MSTORE PUSH1 0x20 ADD DUP3 DUP1 SLOAD PUSH2 0xBA SWAP1 PUSH2 0x419 JUMP JUMPDEST DUP1 ISZERO PUSH2 0x107 JUMPI DUP1 PUSH1 0x1F LT PUSH2 0xDC JUMPI PUSH2 0x100 DUP1 DUP4 SLOAD DIV MUL DUP4 MSTORE SWAP2 PUSH1 0x20 ADD SWAP2 PUSH2 0x107 JUMP JUMPDEST DUP3 ADD SWAP2 SWAP1 PUSH1 0x0 MSTORE PUSH1 0x20 PUSH1 0x0 KECCAK256 SWAP1 JUMPDEST DUP2 SLOAD DUP2 MSTORE SWAP1 PUSH1 0x1 ADD SWAP1 PUSH1 0x20 ADD DUP1 DUP4 GT PUSH2 0xEA JUMPI DUP3 SWAP1 SUB PUSH1 0x1F AND DUP3 ADD SWAP2 JUMPDEST POP POP POP POP POP SWAP1 DUP1 PUSH1 0x1 ADD SLOAD SWAP1 DUP1 PUSH1 0x2 ADD DUP1 SLOAD PUSH2 0x122 SWAP1 PUSH2 0x419 JUMP JUMPDEST DUP1 PUSH1 0x1F ADD PUSH1 0x20 DUP1 SWAP2 DIV MUL PUSH1 0x20 ADD PUSH1 0x40 MLOAD SWAP1 DUP2 ADD PUSH1 0x40 MSTORE DUP1 SWAP3 SWAP2 SWAP1 DUP2 DUP2 MSTORE PUSH1 0x20 ADD DUP3 DUP1 SLOAD PUSH2 0x14E SWAP1 PUSH2 0x419 JUMP JUMPDEST DUP1 ISZERO PUSH2 0x19B JUMPI DUP1 PUSH1 0x1F LT PUSH2 0x170 JUMPI PUSH2 0x100 DUP1 DUP4 SLOAD DIV MUL DUP4 MSTORE SWAP2 PUSH1 0x20 ADD SWAP2 PUSH2 0x19B JUMP JUMPDEST DUP3 ADD SWAP2 SWAP1 PUSH1 0x0 MSTORE PUSH1 0x20 PUSH1 0x0 KECCAK256 SWAP1 JUMPDEST DUP2 SLOAD DUP2 MSTORE SWAP1 PUSH1 0x1 ADD SWAP1 PUSH1 0x20 ADD DUP1 DUP4 GT PUSH2 0x17E JUMPI DUP3 SWAP1 SUB PUSH1 0x1F AND DUP3 ADD SWAP2 JUMPDEST POP POP POP POP POP SWAP1 DUP1 PUSH1 0x3 ADD SLOAD SWAP1 POP DUP5 JUMP JUMPDEST PUSH1 0x60 PUSH1 0x0 PUSH1 0x60 PUSH1 0x0 DUP1 PUSH1 0x0 ADD PUSH1 0x0 PUSH1 0x1 ADD SLOAD PUSH1 0x0 PUSH1 0x2 ADD PUSH1 0x0 PUSH1 0x3 ADD SLOAD DUP4 DUP1 SLOAD PUSH2 0x1D4 SWAP1 PUSH2 0x419 JUMP JUMPDEST DUP1 PUSH1 0x1F ADD PUSH1 0x20 DUP1 SWAP2 DIV MUL PUSH1 0x20 ADD PUSH1 0x40 MLOAD SWAP1 DUP2 ADD PUSH1 0x40 MSTORE DUP1 SWAP3 SWAP2 SWAP1 DUP2 DUP2 MSTORE PUSH1 0x20 ADD DUP3 DUP1 SLOAD PUSH2 0x200 SWAP1 PUSH2 0x419 JUMP JUMPDEST DUP1 ISZERO PUSH2 0x24D JUMPI DUP1 PUSH1 0x1F LT PUSH2 0x222 JUMPI PUSH2 0x100 DUP1 DUP4 SLOAD DIV MUL DUP4 MSTORE SWAP2 PUSH1 0x20 ADD SWAP2 PUSH2 0x24D JUMP JUMPDEST DUP3 ADD SWAP2 SWAP1 PUSH1 0x0 MSTORE PUSH1 0x20 PUSH1 0x0 KECCAK256 SWAP1 JUMPDEST DUP2 SLOAD DUP2 MSTORE SWAP1 PUSH1 0x1 ADD SWAP1 PUSH1 0x20 ADD DUP1 DUP4 GT PUSH2 0x230 JUMPI DUP3 SWAP1 SUB PUSH1 0x1F AND DUP3 ADD SWAP2 JUMPDEST POP POP POP POP POP SWAP4 POP DUP2 DUP1 SLOAD PUSH2 0x260 SWAP1 PUSH2 0x419 JUMP JUMPDEST DUP1 PUSH1 0x1F ADD PUSH1 0x20 DUP1 SWAP2 DIV MUL PUSH1 0x20 ADD PUSH1 0x40 MLOAD SWAP1 DUP2 ADD PUSH1 0x40 MSTORE DUP1 SWAP3 SWAP2 SWAP1 DUP2 DUP2 MSTORE PUSH1 0x20 ADD DUP3 DUP1 SLOAD PUSH2 0x28C SWAP1 PUSH2 0x419 JUMP JUMPDEST DUP1 ISZERO PUSH2 0x2D9 JUMPI DUP1 PUSH1 0x1F LT PUSH2 0x2AE JUMPI PUSH2 0x100 DUP1 DUP4 SLOAD DIV MUL DUP4 MSTORE SWAP2 PUSH1 0x20 ADD SWAP2 PUSH2 0x2D9 JUMP JUMPDEST DUP3 ADD SWAP2 SWAP1 PUSH1 0x0 MSTORE PUSH1 0x20 PUSH1 0x0 KECCAK256 SWAP1 JUMPDEST DUP2 SLOAD DUP2 MSTORE SWAP1 PUSH1 0x1 ADD SWAP1 PUSH1 0x20 ADD DUP1 DUP4 GT PUSH2 0x2BC JUMPI DUP3 SWAP1 SUB PUSH1 0x1F AND DUP3 ADD SWAP2 JUMPDEST POP POP POP POP POP SWAP2 POP SWAP4 POP SWAP4 POP SWAP4 POP SWAP4 POP SWAP1 SWAP2 SWAP3 SWAP4 JUMP JUMPDEST PUSH1 0x0 DUP2 MLOAD SWAP1 POP SWAP2 SWAP1 POP JUMP JUMPDEST PUSH1 0x0 DUP3 DUP3 MSTORE PUSH1 0x20 DUP3 ADD SWAP1 POP SWAP3 SWAP2 POP POP JUMP JUMPDEST PUSH1 0x0 JUMPDEST DUP4 DUP2 LT ISZERO PUSH2 0x328 JUMPI DUP1 DUP3 ADD MLOAD DUP2 DUP5 ADD MSTORE PUSH1 0x20 DUP2 ADD SWAP1 POP PUSH2 0x30D JUMP JUMPDEST PUSH1 0x0 DUP5 DUP5 ADD MSTORE POP POP POP POP JUMP JUMPDEST PUSH1 0x0 PUSH1 0x1F NOT PUSH1 0x1F DUP4 ADD AND SWAP1 POP SWAP2 SWAP1 POP JUMP JUMPDEST PUSH1 0x0 PUSH2 0x350 DUP3 PUSH2 0x2EE JUMP JUMPDEST PUSH2 0x35A DUP2 DUP6 PUSH2 0x2F9 JUMP JUMPDEST SWAP4 POP PUSH2 0x36A DUP2 DUP6 PUSH1 0x20 DUP7 ADD PUSH2 0x30A JUMP JUMPDEST PUSH2 0x373 DUP2 PUSH2 0x334 JUMP JUMPDEST DUP5 ADD SWAP2 POP POP SWAP3 SWAP2 POP POP JUMP JUMPDEST PUSH1 0x0 DUP2 SWAP1 POP SWAP2 SWAP1 POP JUMP JUMPDEST PUSH2 0x391 DUP2 PUSH2 0x37E JUMP JUMPDEST DUP3 MSTORE POP POP JUMP JUMPDEST PUSH1 0x0 PUSH1 0x80 DUP3 ADD SWAP1 POP DUP2 DUP2 SUB PUSH1 0x0 DUP4 ADD MSTORE PUSH2 0x3B1 DUP2 DUP8 PUSH2 0x345 JUMP JUMPDEST SWAP1 POP PUSH2 0x3C0 PUSH1 0x20 DUP4 ADD DUP7 PUSH2 0x388 JUMP JUMPDEST DUP2 DUP2 SUB PUSH1 0x40 DUP4 ADD MSTORE PUSH2 0x3D2 DUP2 DUP6 PUSH2 0x345 JUMP JUMPDEST SWAP1 POP PUSH2 0x3E1 PUSH1 0x60 DUP4 ADD DUP5 PUSH2 0x388 JUMP JUMPDEST SWAP6 SWAP5 POP POP POP POP POP JUMP JUMPDEST PUSH32 0x4E487B7100000000000000000000000000000000000000000000000000000000 PUSH1 0x0 MSTORE PUSH1 0x22 PUSH1 0x4 MSTORE PUSH1 0x24 PUSH1 0x0 REVERT JUMPDEST PUSH1 0x0 PUSH1 0x2 DUP3 DIV SWAP1 POP PUSH1 0x1 DUP3 AND DUP1 PUSH2 0x431 JUMPI PUSH1 0x7F DUP3 AND SWAP2 POP JUMPDEST PUSH1 0x20 DUP3 LT DUP2 SUB PUSH2 0x444 JUMPI PUSH2 0x443 PUSH2 0x3EA JUMP JUMPDEST JUMPDEST POP SWAP2 SWAP1 POP JUMP INVALID LOG2 PUSH5 0x6970667358 0x22 SLT KECCAK256 0xA7 0xAD LOG0 0x5C 0x2C SHR 0xF6 LOG0 DIV PUSH2 0xA1F0 MSTORE8 SWAP10 0xC2 PUSH5 0x194C6F9803 MSTORE PUSH12 0xCE2520F0E0BA3303B664736F PUSH13 0x63430008120033000000000000 "},"methodIdentifiers":{"currentGame()":"60b663bb","getGameData()":"af4e99de"}}}}}