{
  "_format": "hh-sol-artifact-1",
  "contractName": "GameContract",
  "sourceName": "contracts/GameContract.sol",
  "abi": [
    {
      "inputs": [
        {
          "internalType": "string",
          "name": "player1Name",
          "type": "string"
        },
        {
          "internalType": "uint256",
          "name": "player1Score",
          "type": "uint256"
        },
        {
          "internalType": "string",
          "name": "player2Name",
          "type": "string"
        },
        {
          "internalType": "uint256",
          "name": "player2Score",
          "type": "uint256"
        }
      ],
      "stateMutability": "nonpayable",
      "type": "constructor"
    },
    {
      "inputs": [],
      "name": "currentGame",
      "outputs": [
        {
          "internalType": "string",
          "name": "player1Name",
          "type": "string"
        },
        {
          "internalType": "uint256",
          "name": "player1Score",
          "type": "uint256"
        },
        {
          "internalType": "string",
          "name": "player2Name",
          "type": "string"
        },
        {
          "internalType": "uint256",
          "name": "player2Score",
          "type": "uint256"
        }
      ],
      "stateMutability": "view",
      "type": "function"
    },
    {
      "inputs": [],
      "name": "getGameData",
      "outputs": [
        {
          "internalType": "string",
          "name": "",
          "type": "string"
        },
        {
          "internalType": "uint256",
          "name": "",
          "type": "uint256"
        },
        {
          "internalType": "string",
          "name": "",
          "type": "string"
        },
        {
          "internalType": "uint256",
          "name": "",
          "type": "uint256"
        }
      ],
      "stateMutability": "view",
      "type": "function"
    }
  ],
  "bytecode": "0x60806040523480156200001157600080fd5b5060405162000ae038038062000ae0833981810160405281019062000037919062000278565b60405180608001604052808581526020018481526020018381526020018281525060008082015181600001908162000070919062000569565b5060208201518160010155604082015181600201908162000092919062000569565b50606082015181600301559050505050505062000650565b6000604051905090565b600080fd5b600080fd5b600080fd5b600080fd5b6000601f19601f8301169050919050565b7f4e487b7100000000000000000000000000000000000000000000000000000000600052604160045260246000fd5b6200011382620000c8565b810181811067ffffffffffffffff82111715620001355762000134620000d9565b5b80604052505050565b60006200014a620000aa565b905062000158828262000108565b919050565b600067ffffffffffffffff8211156200017b576200017a620000d9565b5b6200018682620000c8565b9050602081019050919050565b60005b83811015620001b357808201518184015260208101905062000196565b60008484015250505050565b6000620001d6620001d0846200015d565b6200013e565b905082815260208101848484011115620001f557620001f4620000c3565b5b6200020284828562000193565b509392505050565b600082601f830112620002225762000221620000be565b5b815162000234848260208601620001bf565b91505092915050565b6000819050919050565b62000252816200023d565b81146200025e57600080fd5b50565b600081519050620002728162000247565b92915050565b60008060008060808587031215620002955762000294620000b4565b5b600085015167ffffffffffffffff811115620002b657620002b5620000b9565b5b620002c4878288016200020a565b9450506020620002d78782880162000261565b935050604085015167ffffffffffffffff811115620002fb57620002fa620000b9565b5b62000309878288016200020a565b92505060606200031c8782880162000261565b91505092959194509250565b600081519050919050565b7f4e487b7100000000000000000000000000000000000000000000000000000000600052602260045260246000fd5b600060028204905060018216806200037b57607f821691505b60208210810362000391576200039062000333565b5b50919050565b60008190508160005260206000209050919050565b60006020601f8301049050919050565b600082821b905092915050565b600060088302620003fb7fffffffffffffffffffffffffffffffffffffffffffffffffffffffffffffffff82620003bc565b620004078683620003bc565b95508019841693508086168417925050509392505050565b6000819050919050565b60006200044a620004446200043e846200023d565b6200041f565b6200023d565b9050919050565b6000819050919050565b620004668362000429565b6200047e620004758262000451565b848454620003c9565b825550505050565b600090565b6200049562000486565b620004a28184846200045b565b505050565b5b81811015620004ca57620004be6000826200048b565b600181019050620004a8565b5050565b601f8211156200051957620004e38162000397565b620004ee84620003ac565b81016020851015620004fe578190505b620005166200050d85620003ac565b830182620004a7565b50505b505050565b600082821c905092915050565b60006200053e600019846008026200051e565b1980831691505092915050565b60006200055983836200052b565b9150826002028217905092915050565b620005748262000328565b67ffffffffffffffff81111562000590576200058f620000d9565b5b6200059c825462000362565b620005a9828285620004ce565b600060209050601f831160018114620005e15760008415620005cc578287015190505b620005d885826200054b565b86555062000648565b601f198416620005f18662000397565b60005b828110156200061b57848901518255600182019150602085019450602081019050620005f4565b868310156200063b578489015162000637601f8916826200052b565b8355505b6001600288020188555050505b505050505050565b61048080620006606000396000f3fe608060405234801561001057600080fd5b50600436106100365760003560e01c806360b663bb1461003b578063af4e99de1461005c575b600080fd5b61004361007d565b6040516100539493929190610397565b60405180910390f35b6100646101ab565b6040516100749493929190610397565b60405180910390f35b600080600001805461008e90610419565b80601f01602080910402602001604051908101604052809291908181526020018280546100ba90610419565b80156101075780601f106100dc57610100808354040283529160200191610107565b820191906000526020600020905b8154815290600101906020018083116100ea57829003601f168201915b50505050509080600101549080600201805461012290610419565b80601f016020809104026020016040519081016040528092919081815260200182805461014e90610419565b801561019b5780601f106101705761010080835404028352916020019161019b565b820191906000526020600020905b81548152906001019060200180831161017e57829003601f168201915b5050505050908060030154905084565b60606000606060008060000160006001015460006002016000600301548380546101d490610419565b80601f016020809104026020016040519081016040528092919081815260200182805461020090610419565b801561024d5780601f106102225761010080835404028352916020019161024d565b820191906000526020600020905b81548152906001019060200180831161023057829003601f168201915b5050505050935081805461026090610419565b80601f016020809104026020016040519081016040528092919081815260200182805461028c90610419565b80156102d95780601f106102ae576101008083540402835291602001916102d9565b820191906000526020600020905b8154815290600101906020018083116102bc57829003601f168201915b50505050509150935093509350935090919293565b600081519050919050565b600082825260208201905092915050565b60005b8381101561032857808201518184015260208101905061030d565b60008484015250505050565b6000601f19601f8301169050919050565b6000610350826102ee565b61035a81856102f9565b935061036a81856020860161030a565b61037381610334565b840191505092915050565b6000819050919050565b6103918161037e565b82525050565b600060808201905081810360008301526103b18187610345565b90506103c06020830186610388565b81810360408301526103d28185610345565b90506103e16060830184610388565b95945050505050565b7f4e487b7100000000000000000000000000000000000000000000000000000000600052602260045260246000fd5b6000600282049050600182168061043157607f821691505b602082108103610444576104436103ea565b5b5091905056fea26469706673582212202bf4a2af24f7043547b18e3a302a8c1d88ee3300f1550ad21c7a900013792b1164736f6c63430008120033",
  "linkReferences": {},
  "deployedLinkReferences": {}
}